:020000040800F2
:1000000000000220F9050008DD050008DF050008F2
:10001000E1050008E3050008E50500080000000010
:10002000000000000000000000000000E7050008DC
:10003000E905000800000000EB050008ED050008D8
:100040004906000849060008490600084906000854
:100050004906000849060008490600084906000844
:100060004906000849060008490600084906000834
:100070004906000849060008490600084906000824
:100080004906000849060008490600084906000814
:100090004906000849060008490600084906000804
:1000A00049060008490600084906000849060008F4
:1000B00049060008490600084906000849060008E4
:1000C00049060008490600084906000849060008D4
:1000D00049060008490600084906000849060008C4
:1000E00049060008490600084906000849060008B4
:1000F00049060008490600084906000849060008A4
:100100004906000849060008490600084906000893
:100110004906000849060008490600084906000883
:100120004906000849060008490600084906000873
:100130004906000800000000000000004906000811
:100140004906000849060008490600084906000853
:100150004906000849060008490600084906000843
:100160004906000849060008490600084906000833
:10017000490600084906000849060008000000007A
:100180000000000049060008000000000000000018
:1001900049060008000000000000000049060008B1
:1001A00000000000000000000000000049060008F8
:1001B00049060008490600084906000849060008E3
:0401C00049060008E4
:1001C40010B5054C237833B9044B13B10448AFF38D
:1001D40000800123237010BD3C04002000000000B7
:1001E4003C10000808B5034B1BB103490348AFF3A7
:1001F400008008BD00000000400400203C100008FE
:1002040053B94AB9002908BF00281CBF4FF0FF3179
:100214004FF0FF3000F074B9ADF1080C6DE904CE75
:1002240000F006F8DDF804E0DDE9022304B07047CD
:100234002DE9F047089E0D4604468846002B4DD113
:100244008A42944668D9B2FA82F252B101FA02F3B0
:10025400C2F1200120FA01F10CFA02FC41EA030880
:1002640094404FEA1C45210CB8FBF5FE1FFA8CF7AD
:1002740005FB1E8341EA03430EFB07F199420BD9A8
:100284001CEB03030EF1FF3080F01E81994240F213
:100294001B81AEF1020E63445B1AA4B2B3FBF5F00A
:1002A40005FB103344EA034400FB07F7A7420AD9CD
:1002B4001CEB040400F1FF3380F00881A74240F2F4
:1002C400058164440238E41B40EA0E4000211EB15B
:1002D400D4400023C6E90043BDE8F0878B4208D927
:1002E400002E00F0EE800021C6E900050846BDE8B6
:1002F400F087B3FA83F100294AD1AB4202D3824298
:1003040000F2F980841A65EB030301209846002E5D
:10031400E2D0C6E90048DFE702B9FFDEB2FA82F2B2
:10032400002A40F09180A1EB0C054FEA1C471FFA0C
:100334008CFE0121B5FBF7F307FB1350250C45EAAE
:1003440000450EFB03F0A84208D91CEB050503F198
:10035400FF3802D2A84200F2CB8043462D1AA4B241
:10036400B5FBF7F007FB105544EA05440EFB00FE0D
:10037400A64508D91CEB040400F1FF3502D2A645BA
:1003840000F2BB802846A4EB0E0440EA03409EE73B
:10039400C1F120078B4022FA07FC4CEA030C20FA37
:1003A40007F405FA01F31C43FD404FEA1C4900FA27
:1003B40001F3B5FBF9F8200C1FFA8CFE09FB185564
:1003C40040EA054508FB0EF0A84202FA01F20BD9F7
:1003D4001CEB050508F1FF3A80F08880A84240F242
:1003E4008580A8F1020865442D1AA4B2B5FBF9F082
:1003F40009FB105544EA054500FB0EFEAE4508D93D
:100404001CEB050500F1FF346CD2AE456AD9023805
:10041400654440EA0840A0FB0294A5EB0E05A54202
:10042400C846A64656D353D05EB1B3EB080265EB7B
:100434000E0505FA07F722FA01F3CD401F43C6E97A
:1004440000750021BDE8F087C2F1200320FA03F112
:100454000CFA02FC25FA03F395400D434FEA1C47BE
:100464001FFA8CFEB3FBF7F107FB11302B0C43EAA8
:10047400004301FB0EF0984204FA02F408D91CEB85
:10048400030301F1FF382FD298422DD90239634476
:100494001B1AADB2B3FBF7F007FB103345EA034573
:1004A40000FB0EF3AB4208D91CEB050500F1FF3845
:1004B40016D2AB4214D902386544ED1A40EA014120
:1004C40038E73146304607E78646E5E61846FAE659
:1004D4004B45A9D2B9EB020864EB0C0E0138A3E733
:1004E4004046EAE7204694E74146D1E7D0467BE719
:1004F400023B654432E7084609E76444023842E7B0
:10050400704700BF72B6FEE700B595B034220021F3
:1005140007A800F0CFFC00230293039304930593F0
:1005240006930093194A116C41F080511164126CC6
:1005340002F080520092009A019315490A6822F44D
:10054400404242F480420A600A6802F44042019246
:10055400019A0222079201220A9210220B920D9311
:1005640007A800F061FA68B90F23029300210391F0
:1005740004910591069102A800F016F920B915B06E
:100584005DF804FBFFF7BEFFFFF7BCFF0038024035
:100594000070004008B500F07DF8FFF7B5FFFEE7F6
:1005A40082B0002100910B4B5A6C42F480425A6491
:1005B4005A6C02F480420092009A01911A6C42F043
:1005C40080521A641B6C03F080530193019B02B0A8
:1005D400704700BF00380240FEE7FEE7FEE7FEE793
:1005E400FEE770477047704708B500F06DF808BD26
:1005F40070470000DFF834D00D480E490E4A00233E
:1006040002E0D458C4500433C4188C42F9D30B4AC2
:100614000B4C002301E013600432A242FBD3FFF72A
:10062400E7FF00F023FCFFF7B5FF7047000002204E
:10063400000000203C0400207C1000083C04002042
:1006440060040020FEE7000010B504460E4B187845
:100654004FF47A73B3FBF0F30C4A1068B0FBF3F079
:1006640000F08EF868B90F2C01D901200AE00022AD
:1006740021464FF0FF3000F04BF8054B1C60002082
:1006840000E0012010BD00BF040000200000002095
:100694000800002008B50B4B1A6842F400721A6077
:1006A4001A6842F480621A601A6842F480721A600E
:1006B400032000F01BF80F20FFF7C6FFFFF770FFC1
:1006C400002008BD003C0240034A1168034B1B781C
:1006D4000B441360704700BF58040020040000203E
:1006E400014B1868704700BF58040020074AD368BC
:1006F40023F4E0631B041B0C000200F4E0600343DA
:1007040043F0BF6343F40033D360704700ED00E06F
:1007140000B5194BDB68C3F30223C3F1070CBCF12A
:10072400040F28BF4FF0040C03F1040EBEF1060FB2
:1007340018D9033B4FF0FF3E0EFA0CFC21EA0C01E2
:1007440099400EFA03F322EA0303194300280BDB52
:100754000901C9B200F1604000F5614080F800135E
:100764005DF804FB0023E5E700F00F000901C9B2BE
:10077400024B1954F4E700BF00ED00E014ED00E073
:100784000138B0F1807F0BD24FF0E0235861054A65
:10079400F02182F823100020986107221A61704723
:1007A4000120704700ED00E0002800F09B8070B548
:1007B4000D4604464F4B1B6803F00F038B4208D2CF
:1007C400CBB24C4A1370136803F00F038B4240F012
:1007D4008B80236813F0020F17D013F0040F04D09A
:1007E400454A936843F4E0539360236813F0080F79
:1007F40004D0414A936843F4604393603E4A93684B
:1008040023F0F003A1680B439360236813F0010FF6
:1008140032D06368012B21D09A1E012A25D9364A89
:10082400126812F0020F61D033498A6822F0030281
:1008340013438B60FFF754FF06462F4B9B6803F06E
:100844000C036268B3EB820F16D0FFF749FF801BDD
:1008540041F288339842F0D9032042E0264A1268D4
:1008640012F4003FE0D101203BE0234A126812F069
:10087400007FD9D1012034E01E4B1B6803F00F0325
:10088400AB4207D9EAB21B4B1A701B6803F00F0383
:10089400AB422DD1236813F0040F06D0164A936897
:1008A40023F4E053E1680B439360236813F0080FCB
:1008B40007D0114A936823F46043216943EAC103D2
:1008C400936000F021F80C4B9B68C3F303130B4AAD
:1008D400D35CD8400A4B18600A4B1868FFF7B4FE83
:1008E400002070BD012070470120FAE70120F8E7DD
:1008F4000120F6E7003C0240003802405410000892
:10090400000000200800002008B5444B9B6803F059
:100914000C03082B07D00C2B43D0042B01D04048E8
:1009240008BD4048FCE73D4B5A6802F03F025B6853
:1009340013F4800F12D0394B5968C1F38811394828
:100944000023A1FB0001FFF75BFC344B5B68C3F39E
:10095400014301335B00B0FBF3F0E1E72F4B59682F
:10096400C1F3881C4FEA4C11B1EB0C006EEB0E0E78
:100974004FEA8E1343EA90638101091A63EB0E0375
:10098400DB0043EA5173C90011EB0C0C43F1000383
:10099400990200234FEA8C2041EA9C51FFF730FC76
:1009A400D3E71E4B5A6802F03F025B6813F4800FD2
:1009B40010D01A4B5968C1F388111A480023A1FBBF
:1009C4000001FFF71DFC154B5B68C3F30273B0FB1A
:1009D400F3F0A5E7114B5968C1F3881C4FEA4C1199
:1009E400B1EB0C006EEB0E0E4FEA8E1343EA9063EC
:1009F4008101091A63EB0E03DB0043EA5173C9005A
:100A040011EB0C0C43F10003990200234FEA8C20F4
:100A140041EA9C51FFF7F4FBD5E700BF00380240E0
:100A24000024F40040787D01002800F0018270B5B4
:100A340082B00446036813F0010F41D0994B9B68C0
:100A440003F00C03042B32D0964B9B6803F00C0389
:100A5400082B27D0934B9B6803F00C030C2B59D025
:100A64006368B3F5803F5BD0B3F5A02F5ED08D4BA8
:100A74001A6822F480321A601A6822F480221A60FA
:100A84006368002B5CD0FFF72BFE0546854B1B6883
:100A940013F4003F14D1FFF723FE401B6428F5D95B
:100AA4000320CCE17F4B5B6813F4800FD2D07D4BE5
:100AB4001B6813F4003F03D06368002B00F0BA8175
:100AC400236813F0020F60D0764B9B6813F00C0F71
:100AD4004AD0744B9B6803F00C03082B3FD0714B36
:100AE4009B6803F00C030C2B69D0E368002B75D0D2
:100AF4006D4B01221A60FFF7F3FD0546694B1B6835
:100B040013F0020F61D1FFF7EBFD401B0228F5D96A
:100B1400032094E1634B5B6813F4800FA0D0C6E715
:100B2400604A136843F480331360A9E75D4B1A6885
:100B340042F480221A601A6842F480321A609FE7F5
:100B4400FFF7CEFD0546574B1B6813F4003FB7D0A3
:100B5400FFF7C6FD401B6428F5D903206FE1514B14
:100B64005B6813F4800FBAD14E4B1B6813F0020F6D
:100B740003D0E368012B40F05F814A4A136823F0F5
:100B8400F803216943EAC1031360236813F0080FD3
:100B940049D06369002B33D0434B0122C3F8802E24
:100BA400FFF79EFD05463F4B5B6F13F0020F3AD1F2
:100BB400FFF796FD401B0228F5D903203FE1394B8E
:100BC4005B6813F4800F90D1CEE7364A136823F0A4
:100BD400F803216943EAC1031360D6E7324B0022CC
:100BE4001A60FFF77DFD05462E4B1B6813F0020FBC
:100BF400CBD0FFF775FD401B0228F5D903201EE179
:100C0400294B0022C3F8802EFFF76AFD0546254BC9
:100C14005B6F13F0020F06D0FFF762FD401B022842
:100C2400F5D903200BE1236813F0040F76D01D4B94
:100C34001B6C13F0805F33D100230193194B1A6CA2
:100C440042F080521A641B6C03F080530193019BA1
:100C54000125164B1B6813F4807F29D0A368012B50
:100C64003AD0052B3ED00F4B1A6F22F001021A67BF
:100C74001A6F22F004021A67A368002B3CD0FFF716
:100C84002FFD0646074B1B6F13F0020F45D1FFF7EC
:100C940027FD801B41F288339842F3D90320CEE02C
:100CA4000025D6E7003802400000474200700040AB
:100CB4006B4A136843F480731360FFF711FD064613
:100CC400674B1B6813F4807FC8D1FFF709FD801BB5
:100CD4000228F5D90320B2E0624A136F43F00103FE
:100CE4001367C9E75F4B1A6F42F004021A671A6F61
:100CF40042F001021A67BFE7FFF7F2FC0646594BC0
:100D04001B6F13F0020F08D0FFF7EAFC801B41F2BF
:100D140088339842F3D9032091E0EDB9A369002BFD
:100D240000F08C804F4A926802F00C02082A54D0DA
:100D3400022B17D04C4B00221A66FFF7D1FC044655
:100D4400484B1B6813F0007F45D0FFF7C9FC001B1C
:100D54000228F5D9032072E0424A136C23F0805331
:100D64001364DBE7404B00221A66FFF7B9FC054623
:100D74003C4B1B6813F0007F06D0FFF7B1FC401B0F
:100D84000228F5D903205AE0E369226A1343626A10
:100D940043EA8213A26A5208013A43EA0243E26A2E
:100DA40043EA0263226B43EA02732E4A53602E4BDA
:100DB40001221A66FFF794FC04462A4B1B6813F0C1
:100DC400007F06D1FFF78CFC001B0228F5D9032015
:100DD40035E0002033E0002031E0012B31D0214BFD
:100DE4005B6803F48001E26991422CD103F03F0275
:100DF400216A8A4229D1616A47F6C0721A40B2EB6D
:100E0400811F24D103F44031A26A5208013AB1EBA4
:100E1400024F1ED103F07062E16AB2EB016F1AD186
:100E240003F0E043226BB3EB027F16D1002006E00F
:100E340001207047012002E0012000E0002002B000
:100E440070BD0120FBE70120F9E70120F7E701204D
:100E5400F5E70120F3E70120F1E70120EFE700BF08
:100E640000700040003802400000474270B50D4E4B
:100E74000D4D761BB61006D0002455F8043B013402
:100E84009847A642F9D1094E094D761B00F0D4F8D3
:100E9400B61006D0002455F8043B01349847A64206
:100EA400F9D170BD701000087010000878100008A7
:100EB40070100008830730B548D0541E002A3FD074
:100EC400CAB2034601E0013C3AD303F8012B9D0763
:100ED400F9D1032C2DD9CDB245EA05250F2C45EACD
:100EE400054536D9A4F1100222F00F0C03F1200EAF
:100EF400E6444FEA121C03F1100242E9045542E9A8
:100F0400025510327245F8D10CF1010214F00C0FA5
:100F140003EB021204F00F0C13D0ACF1040323F022
:100F240003030433134442F8045B9342FBD10CF0F3
:100F340003042CB1CAB21C4403F8012B9C42FBD11C
:100F440030BD64461346002CF4D1F9E70346144639
:100F5400BFE71A46A446E0E7024B13B1024800F08B
:100F640005B87047000000007D0F0008002301460B
:100F74001A46184600F01AB838B5084B084D5B1BE2
:100F84009C1007D0043B1D44013C55F80439984794
:100F9400002CF9D1BDE8384000F054B87C100008AA
:100FA40078100008704700BF704700BF2DE9F04774
:100FB400DFF87CA00646DAF8000098460F46914612
:100FC400FFF7F0FF1B4B1B68D3F8484124B3656857
:100FD4001F2D26DC5EB96B1C0235DAF80000636055
:100FE40044F82570FFF7E0FF0020BDE8F08704EB2C
:100FF40085010123C1F88890D4F88821AB401A43B5
:10100400022EC4F88821C1F80881E4D1D4F88C21D7
:101014001343C4F88C31DEE703F5A674C3F84841E2
:10102400D5E7DAF80000FFF7BFFF4FF0FF30DCE749
:101034003804002064100008F8B500BFF8BC08BCF0
:101044009E467047F8B500BFF8BC08BC9E46704782
:101054000000000000000000010203040607080964
:041064001000002058
:08106800CCF1FF7F0100000044
:081070005D0F0008E901000812
:04107800C5010008A6
:10107C000024F4000100000010000000000000003B
:10108C0000000000FC02002064030020CC030020C0
:10109C000000000000000000000000000000000044
:1010AC000000000000000000000000000000000034
:1010BC000000000000000000000000000000000024
:1010CC000000000000000000000000000000000014
:1010DC000000000000000000000000000000000004
:1010EC0000000000000000000000000000000000F4
:1010FC0000000000000000000000000000000000E4
:10110C0000000000000000000000000000000000D3
:10111C0000000000000000000000000000000000C3
:10112C0000000000000000000100000000000000B2
:10113C000E33CDAB34126DE6ECDE05000B00000077
:10114C000000000000000000000000000000000093
:10115C000000000000000000000000000000000083
:10116C000000000000000000000000000000000073
:10117C000000000000000000000000000000000063
:0C14AC0000000000000000005C040020B4
:04000005080005F9F1
:00000001FF
